{
  "contractName": "UserFactory",
  "abi": [
    {
      "constant": true,
      "inputs": [
        {
          "name": "",
          "type": "address"
        }
      ],
      "name": "users",
      "outputs": [
        {
          "name": "",
          "type": "address"
        }
      ],
      "payable": false,
      "stateMutability": "view",
      "type": "function"
    },
    {
      "constant": false,
      "inputs": [],
      "name": "createUser",
      "outputs": [],
      "payable": false,
      "stateMutability": "nonpayable",
      "type": "function"
    },
    {
      "constant": false,
      "inputs": [
        {
          "name": "firstName",
          "type": "bytes32"
        },
        {
          "name": "lastName",
          "type": "bytes32"
        },
        {
          "name": "email",
          "type": "bytes32"
        },
        {
          "name": "birthDate",
          "type": "bytes32"
        }
      ],
      "name": "setUserData",
      "outputs": [],
      "payable": false,
      "stateMutability": "nonpayable",
      "type": "function"
    },
    {
      "constant": true,
      "inputs": [
        {
          "name": "account",
          "type": "address"
        }
      ],
      "name": "getUserData",
      "outputs": [
        {
          "name": "",
          "type": "bytes32"
        },
        {
          "name": "",
          "type": "bytes32"
        },
        {
          "name": "",
          "type": "bytes32"
        },
        {
          "name": "",
          "type": "bytes32"
        }
      ],
      "payable": false,
      "stateMutability": "view",
      "type": "function"
    }
  ],
  "bytecode": "0x608060405234801561001057600080fd5b50610614806100206000396000f3006080604052600436106100615763ffffffff7c0100000000000000000000000000000000000000000000000000000000600035041663029880ba811461006657806325ad91ce14610089578063a87430ba1461009e578063ffc9896b146100f5575b600080fd5b34801561007257600080fd5b50610087600435602435604435606435610149565b005b34801561009557600080fd5b50610087610230565b3480156100aa57600080fd5b506100cc73ffffffffffffffffffffffffffffffffffffffff600435166102ea565b6040805173ffffffffffffffffffffffffffffffffffffffff9092168252519081900360200190f35b34801561010157600080fd5b5061012373ffffffffffffffffffffffffffffffffffffffff60043516610312565b604080519485526020850193909352838301919091526060830152519081900360800190f35b3360009081526020819052604090205473ffffffffffffffffffffffffffffffffffffffff16151561017a57600080fd5b336000818152602081905260408082205481517f20f4603b000000000000000000000000000000000000000000000000000000008152600481019490945260248401889052604484018790526064840186905260848401859052905173ffffffffffffffffffffffffffffffffffffffff909116926320f4603b9260a480830193919282900301818387803b15801561021257600080fd5b505af1158015610226573d6000803e3d6000fd5b5050505050505050565b3360009081526020819052604090205473ffffffffffffffffffffffffffffffffffffffff1615156102e85733610265610411565b73ffffffffffffffffffffffffffffffffffffffff909116815260405190819003602001906000f08015801561029f573d6000803e3d6000fd5b50336000908152602081905260409020805473ffffffffffffffffffffffffffffffffffffffff191673ffffffffffffffffffffffffffffffffffffffff929092169190911790555b565b60006020819052908152604090205473ffffffffffffffffffffffffffffffffffffffff1681565b73ffffffffffffffffffffffffffffffffffffffff8082166000908152602081905260408120549091829182918291161561040a5773ffffffffffffffffffffffffffffffffffffffff8086166000908152602081905260408082205481517f22e8c87d00000000000000000000000000000000000000000000000000000000815291519316926322e8c87d92600480840193608093929083900390910190829087803b1580156103c257600080fd5b505af11580156103d6573d6000803e3d6000fd5b505050506040513d60808110156103ec57600080fd5b50805160208201516040830151606090930151919650945090925090505b9193509193565b6040516101c7806104228339019056006080604052600060025534801561001557600080fd5b506040516020806101c7833981016040525160008054600160a060020a03909216600160a060020a031992831617905560018054909116331790556101688061005f6000396000f30060806040526004361061004b5763ffffffff7c010000000000000000000000000000000000000000000000000000000060003504166320f4603b811461005057806322e8c87d1461008c575b600080fd5b34801561005c57600080fd5b5061008a73ffffffffffffffffffffffffffffffffffffffff600435166024356044356064356084356100c7565b005b34801561009857600080fd5b506100a161012a565b604080519485526020850193909352838301919091526060830152519081900360800190f35b600154859073ffffffffffffffffffffffffffffffffffffffff1633146100ed57600080fd5b60005473ffffffffffffffffffffffffffffffffffffffff82811691161461011457600080fd5b5060039390935560049190915560055560065550565b600354600454600554600654909192935600a165627a7a7230582010bdd524c5e4d8947d5ba97181eb7aef46086519e2d6882c10c136439ac035ed0029a165627a7a7230582065a6f1de04cc8888d35ff98a3ddff5500015fca52576d5e932535426203331de0029",
  "source": "/*\nUserFactory.deployed().then(function(instance){u=instance})\nu.createUser({from: '0xa35c6eb16d0061feb92b1e4979e94e2f99630d6a'});\n*/\npragma solidity ^0.4.23;\n\nimport './User.sol';\n\ncontract UserFactory {\n\n    mapping(address => address) public users;\n\n    function createUser() public {\n        if (users[msg.sender] == 0) {\n            users[msg.sender] = new User(msg.sender);\n        }\n    }\n\n    function setUserData(\n      bytes32 firstName,\n      bytes32 lastName,\n      bytes32 email,\n      bytes32 birthDate\n    ) public {\n      require (users[msg.sender] != 0);\n      User(users[msg.sender]).setUserData(\n        msg.sender,\n        firstName,\n        lastName,\n        email,\n        birthDate\n      );\n    }\n\n    function getUserData(address account) public constant returns (\n      bytes32,\n      bytes32,\n      bytes32,\n      bytes32\n    ) {\n      if (users[account] != 0) {\n        return (\n          User(users[account]).getUserData()\n        );\n      }\n    }\n\n}\n",
  "sourcePath": "/home/damian/src/drizzle-react-demo/src/eth/contracts/UserFactory.sol",
  "compiler": {
    "name": "solc",
    "version": "0.4.24+commit.e67f0147.Emscripten.clang"
  },
  "schemaVersion": "2.0.1",
  "updatedAt": "2018-07-29T06:44:16.820Z"
}