{
  "contractName": "User",
  "abi": [
    {
      "inputs": [
        {
          "name": "_owner",
          "type": "address"
        }
      ],
      "payable": false,
      "stateMutability": "nonpayable",
      "type": "constructor"
    },
    {
      "constant": false,
      "inputs": [
        {
          "name": "caller",
          "type": "address"
        },
        {
          "name": "firstName",
          "type": "bytes32"
        },
        {
          "name": "lastName",
          "type": "bytes32"
        },
        {
          "name": "email",
          "type": "bytes32"
        },
        {
          "name": "birthDate",
          "type": "bytes32"
        }
      ],
      "name": "setUserData",
      "outputs": [],
      "payable": false,
      "stateMutability": "nonpayable",
      "type": "function"
    },
    {
      "constant": true,
      "inputs": [],
      "name": "getUserData",
      "outputs": [
        {
          "name": "",
          "type": "bytes32"
        },
        {
          "name": "",
          "type": "bytes32"
        },
        {
          "name": "",
          "type": "bytes32"
        },
        {
          "name": "",
          "type": "bytes32"
        }
      ],
      "payable": false,
      "stateMutability": "view",
      "type": "function"
    }
  ],
  "bytecode": "0x6080604052600060025534801561001557600080fd5b506040516020806101c7833981016040525160008054600160a060020a03909216600160a060020a031992831617905560018054909116331790556101688061005f6000396000f30060806040526004361061004b5763ffffffff7c010000000000000000000000000000000000000000000000000000000060003504166320f4603b811461005057806322e8c87d1461008c575b600080fd5b34801561005c57600080fd5b5061008a73ffffffffffffffffffffffffffffffffffffffff600435166024356044356064356084356100c7565b005b34801561009857600080fd5b506100a161012a565b604080519485526020850193909352838301919091526060830152519081900360800190f35b600154859073ffffffffffffffffffffffffffffffffffffffff1633146100ed57600080fd5b60005473ffffffffffffffffffffffffffffffffffffffff82811691161461011457600080fd5b5060039390935560049190915560055560065550565b600354600454600554600654909192935600a165627a7a7230582010bdd524c5e4d8947d5ba97181eb7aef46086519e2d6882c10c136439ac035ed0029",
  "source": "pragma solidity ^0.4.23;\n\ncontract User {\n\n    address owner;\n    address factory;\n    uint count = 0;\n\n    struct UserData {\n      bytes32 firstName;\n      bytes32 lastName;\n      bytes32 email;\n      bytes32 birthDate;\n    }\n\n    UserData userData;\n\n    // Meine Vertreter\n    address[] delegates;\n\n    // User von denen ich Vertreter bin\n    address[] trustees;\n\n    constructor(address _owner) public {\n        owner = _owner;\n        factory = msg.sender;\n    }\n\n    modifier isOwner(address _caller) {\n        require(msg.sender == factory);\n        require(_caller == owner);\n        _;\n    }\n\n    function setUserData(\n      address caller,\n      bytes32 firstName,\n      bytes32 lastName,\n      bytes32 email,\n      bytes32 birthDate\n    ) public isOwner(caller) {\n      userData.firstName = firstName;\n      userData.lastName  = lastName;\n      userData.email     = email;\n      userData.birthDate = birthDate;\n    }\n\n    function getUserData() constant public returns(bytes32, bytes32, bytes32, bytes32) {\n        return (\n          userData.firstName,\n          userData.lastName,\n          userData.email,\n          userData.birthDate\n        );\n    }\n\n}\n",
  "sourcePath": "/home/damian/src/drizzle-react-demo/src/eth/contracts/User.sol",
  "compiler": {
    "name": "solc",
    "version": "0.4.24+commit.e67f0147.Emscripten.clang"
  },
  "schemaVersion": "2.0.1",
  "updatedAt": "2018-07-29T06:44:16.822Z"
}