{
  "contractName": "User",
  "abi": [
    {
      "inputs": [
        {
          "name": "_owner",
          "type": "address"
        }
      ],
      "payable": false,
      "stateMutability": "nonpayable",
      "type": "constructor"
    },
    {
      "constant": false,
      "inputs": [
        {
          "name": "caller",
          "type": "address"
        },
        {
          "name": "firstName",
          "type": "bytes32"
        },
        {
          "name": "lastName",
          "type": "bytes32"
        },
        {
          "name": "email",
          "type": "bytes32"
        },
        {
          "name": "birthDate",
          "type": "bytes32"
        }
      ],
      "name": "setUserData",
      "outputs": [],
      "payable": false,
      "stateMutability": "nonpayable",
      "type": "function"
    },
    {
      "constant": true,
      "inputs": [],
      "name": "getUserData",
      "outputs": [
        {
          "name": "",
          "type": "bytes32"
        },
        {
          "name": "",
          "type": "bytes32"
        },
        {
          "name": "",
          "type": "bytes32"
        },
        {
          "name": "",
          "type": "bytes32"
        }
      ],
      "payable": false,
      "stateMutability": "view",
      "type": "function"
    }
  ],
  "bytecode": "0x6080604052600060025534801561001557600080fd5b506040516020806101f58339810180604052602081101561003557600080fd5b505160008054600160a060020a03909216600160a060020a031992831617905560018054909116331790556101868061006f6000396000f3fe60806040526004361061004b5763ffffffff7c010000000000000000000000000000000000000000000000000000000060003504166320f4603b811461005057806322e8c87d146100aa575b600080fd5b34801561005c57600080fd5b506100a8600480360360a081101561007357600080fd5b5073ffffffffffffffffffffffffffffffffffffffff81351690602081013590604081013590606081013590608001356100e5565b005b3480156100b657600080fd5b506100bf610148565b604080519485526020850193909352838301919091526060830152519081900360800190f35b600154859073ffffffffffffffffffffffffffffffffffffffff16331461010b57600080fd5b60005473ffffffffffffffffffffffffffffffffffffffff82811691161461013257600080fd5b5060039390935560049190915560055560065550565b6003546004546005546006549091929356fea165627a7a7230582001b1b9efb78b2151371f34aaa1dde2f455cedfed398a21f92bf85ec5d879dd2f0029",
  "source": "//pragma solidity ^0.4.23;\npragma solidity ^0.5.0;\n\ncontract User {\n\n    address owner;\n    address factory;\n    uint count = 0;\n\n    struct UserData {\n      bytes32 firstName;\n      bytes32 lastName;\n      bytes32 email;\n      bytes32 birthDate;\n    }\n\n    UserData userData;\n\n    // Meine Vertreter\n    address[] delegates;\n\n    // User von denen ich Vertreter bin\n    address[] trustees;\n\n    constructor(address _owner) public {\n        owner = _owner;\n        factory = msg.sender;\n    }\n\n    modifier isOwner(address _caller) {\n        require(msg.sender == factory);\n        require(_caller == owner);\n        _;\n    }\n\n    function setUserData(\n      address caller,\n      bytes32 firstName,\n      bytes32 lastName,\n      bytes32 email,\n      bytes32 birthDate\n    ) public isOwner(caller) {\n      userData.firstName = firstName;\n      userData.lastName  = lastName;\n      userData.email     = email;\n      userData.birthDate = birthDate;\n    }\n\n    function getUserData() view public returns(bytes32, bytes32, bytes32, bytes32) {\n        return (\n          userData.firstName,\n          userData.lastName,\n          userData.email,\n          userData.birthDate\n        );\n    }\n\n}\n",
  "sourcePath": "/home/damian/src/drizzle-react-demo/src/eth/contracts/User.sol",
  "compiler": {
    "name": "solc",
    "version": "0.5.0+commit.1d4f565a.Emscripten.clang"
  },
  "schemaVersion": "3.0.1",
  "updatedAt": "2019-01-05T06:39:25.045Z",
  "devdoc": {
    "methods": {}
  },
  "userdoc": {
    "methods": {}
  }
}