{
  "contractName": "UserFactory",
  "abi": [
    {
      "constant": true,
      "inputs": [
        {
          "name": "",
          "type": "address"
        }
      ],
      "name": "users",
      "outputs": [
        {
          "name": "",
          "type": "address"
        }
      ],
      "payable": false,
      "stateMutability": "view",
      "type": "function"
    },
    {
      "constant": false,
      "inputs": [],
      "name": "createUser",
      "outputs": [],
      "payable": false,
      "stateMutability": "nonpayable",
      "type": "function"
    },
    {
      "constant": false,
      "inputs": [
        {
          "name": "firstName",
          "type": "bytes32"
        },
        {
          "name": "lastName",
          "type": "bytes32"
        },
        {
          "name": "email",
          "type": "bytes32"
        },
        {
          "name": "birthDate",
          "type": "bytes32"
        }
      ],
      "name": "setUserData",
      "outputs": [],
      "payable": false,
      "stateMutability": "nonpayable",
      "type": "function"
    },
    {
      "constant": true,
      "inputs": [
        {
          "name": "account",
          "type": "address"
        }
      ],
      "name": "getUserData",
      "outputs": [
        {
          "name": "",
          "type": "bytes32"
        },
        {
          "name": "",
          "type": "bytes32"
        },
        {
          "name": "",
          "type": "bytes32"
        },
        {
          "name": "",
          "type": "bytes32"
        }
      ],
      "payable": false,
      "stateMutability": "view",
      "type": "function"
    }
  ],
  "bytecode": "0x608060405234801561001057600080fd5b5061067f806100206000396000f3fe6080604052600436106100615763ffffffff7c0100000000000000000000000000000000000000000000000000000000600035041663029880ba811461006657806325ad91ce146100a4578063a87430ba146100b9578063ffc9896b14610122575b600080fd5b34801561007257600080fd5b506100a26004803603608081101561008957600080fd5b5080359060208101359060408101359060600135610188565b005b3480156100b057600080fd5b506100a261026f565b3480156100c557600080fd5b506100f9600480360360208110156100dc57600080fd5b503573ffffffffffffffffffffffffffffffffffffffff16610329565b6040805173ffffffffffffffffffffffffffffffffffffffff9092168252519081900360200190f35b34801561012e57600080fd5b506101626004803603602081101561014557600080fd5b503573ffffffffffffffffffffffffffffffffffffffff16610351565b604080519485526020850193909352838301919091526060830152519081900360800190f35b3360009081526020819052604090205473ffffffffffffffffffffffffffffffffffffffff1615156101b957600080fd5b336000818152602081905260408082205481517f20f4603b000000000000000000000000000000000000000000000000000000008152600481019490945260248401889052604484018790526064840186905260848401859052905173ffffffffffffffffffffffffffffffffffffffff909116926320f4603b9260a480830193919282900301818387803b15801561025157600080fd5b505af1158015610265573d6000803e3d6000fd5b5050505050505050565b3360009081526020819052604090205473ffffffffffffffffffffffffffffffffffffffff16151561032757336102a461044e565b73ffffffffffffffffffffffffffffffffffffffff909116815260405190819003602001906000f0801580156102de573d6000803e3d6000fd5b50336000908152602081905260409020805473ffffffffffffffffffffffffffffffffffffffff191673ffffffffffffffffffffffffffffffffffffffff929092169190911790555b565b60006020819052908152604090205473ffffffffffffffffffffffffffffffffffffffff1681565b73ffffffffffffffffffffffffffffffffffffffff818116600090815260208190526040812054909182918291829116156104475773ffffffffffffffffffffffffffffffffffffffff808616600090815260208190526040908190205481517f22e8c87d00000000000000000000000000000000000000000000000000000000815291519216916322e8c87d91600480820192608092909190829003018186803b1580156103ff57600080fd5b505afa158015610413573d6000803e3d6000fd5b505050506040513d608081101561042957600080fd5b50805160208201516040830151606090930151919650945090925090505b9193509193565b6040516101f58061045f8339019056fe6080604052600060025534801561001557600080fd5b506040516020806101f58339810180604052602081101561003557600080fd5b505160008054600160a060020a03909216600160a060020a031992831617905560018054909116331790556101868061006f6000396000f3fe60806040526004361061004b5763ffffffff7c010000000000000000000000000000000000000000000000000000000060003504166320f4603b811461005057806322e8c87d146100aa575b600080fd5b34801561005c57600080fd5b506100a8600480360360a081101561007357600080fd5b5073ffffffffffffffffffffffffffffffffffffffff81351690602081013590604081013590606081013590608001356100e5565b005b3480156100b657600080fd5b506100bf610148565b604080519485526020850193909352838301919091526060830152519081900360800190f35b600154859073ffffffffffffffffffffffffffffffffffffffff16331461010b57600080fd5b60005473ffffffffffffffffffffffffffffffffffffffff82811691161461013257600080fd5b5060039390935560049190915560055560065550565b6003546004546005546006549091929356fea165627a7a7230582001b1b9efb78b2151371f34aaa1dde2f455cedfed398a21f92bf85ec5d879dd2f0029a165627a7a72305820893442eb94859578800d855fdfa5443b94bf21d02b4acae2c1b721f9819c97870029",
  "source": "/*\nUserFactory.deployed().then(function(instance){u=instance})\nu.createUser({from: '0xa35c6eb16d0061feb92b1e4979e94e2f99630d6a'});\n*/\n//pragma solidity ^0.4.23;\npragma solidity ^0.5.0;\n\nimport './User.sol';\n\ncontract UserFactory {\n\n    mapping(address => address) public users;\n\n    function createUser() public {\n        if (users[msg.sender] == address(0)) {\n            users[msg.sender] = address(new User(msg.sender));\n        }\n    }\n\n    function setUserData(\n      bytes32 firstName,\n      bytes32 lastName,\n      bytes32 email,\n      bytes32 birthDate\n    ) public {\n      require (users[msg.sender] != address(0));\n      User(users[msg.sender]).setUserData(\n        msg.sender,\n        firstName,\n        lastName,\n        email,\n        birthDate\n      );\n    }\n\n    function getUserData(address account) public view returns (\n      bytes32,\n      bytes32,\n      bytes32,\n      bytes32\n    ) {\n      if (users[account] != address(0)) {\n        return (\n          User(users[account]).getUserData()\n        );\n      }\n    }\n\n}\n",
  "sourcePath": "/home/damian/src/drizzle-react-demo/src/eth/contracts/UserFactory.sol",
  "compiler": {
    "name": "solc",
    "version": "0.5.0+commit.1d4f565a.Emscripten.clang"
  },
  "schemaVersion": "3.0.1",
  "updatedAt": "2019-01-05T06:39:25.042Z",
  "devdoc": {
    "methods": {}
  },
  "userdoc": {
    "methods": {}
  }
}